{"abi":[{"type":"constructor","inputs":[],"stateMutability":"nonpayable"},{"type":"function","name":"FeePercentage","inputs":[],"outputs":[{"name":"","type":"uint256","internalType":"uint256"}],"stateMutability":"view"},{"type":"function","name":"completeIdea","inputs":[{"name":"id","type":"uint256","internalType":"uint256"}],"outputs":[],"stateMutability":"nonpayable"},{"type":"function","name":"contributions","inputs":[{"name":"","type":"uint256","internalType":"uint256"},{"name":"","type":"address","internalType":"address"}],"outputs":[{"name":"","type":"uint256","internalType":"uint256"}],"stateMutability":"view"},{"type":"function","name":"createIdea","inputs":[{"name":"title","type":"string","internalType":"string"},{"name":"description","type":"string","internalType":"string"},{"name":"goal","type":"uint256","internalType":"uint256"},{"name":"deadline","type":"uint256","internalType":"uint256"}],"outputs":[],"stateMutability":"nonpayable"},{"type":"function","name":"fundIdea","inputs":[{"name":"id","type":"uint256","internalType":"uint256"}],"outputs":[],"stateMutability":"payable"},{"type":"function","name":"getIdea","inputs":[{"name":"ideaId","type":"uint256","internalType":"uint256"}],"outputs":[{"name":"","type":"string","internalType":"string"},{"name":"","type":"string","internalType":"string"},{"name":"","type":"address","internalType":"address"},{"name":"","type":"uint256","internalType":"uint256"},{"name":"","type":"uint256","internalType":"uint256"},{"name":"","type":"uint256","internalType":"uint256"},{"name":"","type":"bool","internalType":"bool"}],"stateMutability":"view"},{"type":"function","name":"owner","inputs":[],"outputs":[{"name":"","type":"address","internalType":"address"}],"stateMutability":"view"},{"type":"function","name":"refund","inputs":[{"name":"id","type":"uint256","internalType":"uint256"},{"name":"backer","type":"address","internalType":"address"}],"outputs":[],"stateMutability":"nonpayable"},{"type":"function","name":"renounceOwnership","inputs":[],"outputs":[],"stateMutability":"nonpayable"},{"type":"function","name":"toggleActive","inputs":[],"outputs":[],"stateMutability":"nonpayable"},{"type":"function","name":"totalIdeas","inputs":[],"outputs":[{"name":"","type":"uint256","internalType":"uint256"}],"stateMutability":"view"},{"type":"function","name":"transferOwnership","inputs":[{"name":"newOwner","type":"address","internalType":"address"}],"outputs":[],"stateMutability":"nonpayable"},{"type":"function","name":"withdraw","inputs":[{"name":"id","type":"uint256","internalType":"uint256"}],"outputs":[],"stateMutability":"nonpayable"},{"type":"function","name":"withdrawFees","inputs":[{"name":"id","type":"uint256","internalType":"uint256"}],"outputs":[],"stateMutability":"nonpayable"},{"type":"event","name":"IdeaCreated","inputs":[{"name":"id","type":"uint256","indexed":false,"internalType":"uint256"},{"name":"owner","type":"address","indexed":false,"internalType":"address"},{"name":"title","type":"string","indexed":false,"internalType":"string"},{"name":"description","type":"string","indexed":false,"internalType":"string"}],"anonymous":false},{"type":"event","name":"IdeaFunded","inputs":[{"name":"id","type":"uint256","indexed":false,"internalType":"uint256"},{"name":"funder","type":"address","indexed":false,"internalType":"address"},{"name":"amount","type":"uint256","indexed":false,"internalType":"uint256"}],"anonymous":false},{"type":"event","name":"OwnershipTransferred","inputs":[{"name":"previousOwner","type":"address","indexed":true,"internalType":"address"},{"name":"newOwner","type":"address","indexed":true,"internalType":"address"}],"anonymous":false},{"type":"event","name":"refunded","inputs":[{"name":"id","type":"uint256","indexed":false,"internalType":"uint256"},{"name":"backer","type":"address","indexed":false,"internalType":"address"},{"name":"amount","type":"uint256","indexed":false,"internalType":"uint256"}],"anonymous":false},{"type":"event","name":"withdrawFunds","inputs":[{"name":"id","type":"uint256","indexed":false,"internalType":"uint256"},{"name":"owner","type":"address","indexed":false,"internalType":"address"},{"name":"amount","type":"uint256","indexed":false,"internalType":"uint256"}],"anonymous":false},{"type":"error","name":"OwnableInvalidOwner","inputs":[{"name":"owner","type":"address","internalType":"address"}]},{"type":"error","name":"OwnableUnauthorizedAccount","inputs":[{"name":"account","type":"address","internalType":"address"}]}],"bytecode":{"object":"0x60806040525f600355600160045f6101000a81548160ff0219169083151502179055506005805534801562000032575f80fd5b50335f73ffffffffffffffffffffffffffffffffffffffff168173ffffffffffffffffffffffffffffffffffffffff1603620000a7575f6040517f1e4fbdf70000000000000000000000000000000000000000000000000000000081526004016200009e9190620001c8565b60405180910390fd5b620000b881620000c460201b60201c565b505f33905050620001e3565b5f805f9054906101000a900473ffffffffffffffffffffffffffffffffffffffff169050815f806101000a81548173ffffffffffffffffffffffffffffffffffffffff021916908373ffffffffffffffffffffffffffffffffffffffff1602179055508173ffffffffffffffffffffffffffffffffffffffff168173ffffffffffffffffffffffffffffffffffffffff167f8be0079c531659141344cd1fd0a4f28419497f9722a3daafe3b4186f6b6457e060405160405180910390a35050565b5f73ffffffffffffffffffffffffffffffffffffffff82169050919050565b5f620001b08262000185565b9050919050565b620001c281620001a4565b82525050565b5f602082019050620001dd5f830184620001b7565b92915050565b6121aa80620001f15f395ff3fe6080604052600436106100dc575f3560e01c80635e318e071161007e5780638da5cb5b116100585780638da5cb5b1461027c578063ccdd0035146102a6578063e28797d2146102c2578063f2fde38b146102ec576100dc565b80635e318e0714610216578063715018a61461023e5780637ad226dc14610254576100dc565b806338a93ba0116100ba57806338a93ba01461014657806338f35913146101705780633d891f591461019857806344de6b2f146101d4576100dc565b806329c68dc1146100e05780632a8d37b1146100f65780632e1a7d4d1461011e575b5f80fd5b3480156100eb575f80fd5b506100f4610314565b005b348015610101575f80fd5b5061011c60048036038101906101179190611267565b610346565b005b348015610129575f80fd5b50610144600480360381019061013f9190611267565b610416565b005b348015610151575f80fd5b5061015a6106b8565b60405161016791906112a1565b60405180910390f35b34801561017b575f80fd5b50610196600480360381019061019191906113f6565b6106be565b005b3480156101a3575f80fd5b506101be60048036038101906101b991906114ec565b61081a565b6040516101cb91906112a1565b60405180910390f35b3480156101df575f80fd5b506101fa60048036038101906101f59190611267565b61083a565b60405161020d97969594939291906115cd565b60405180910390f35b348015610221575f80fd5b5061023c60048036038101906102379190611267565b6109cf565b005b348015610249575f80fd5b50610252610b88565b005b34801561025f575f80fd5b5061027a600480360381019061027591906114ec565b610b9b565b005b348015610287575f80fd5b50610290610e1b565b60405161029d9190611648565b60405180910390f35b6102c060048036038101906102bb9190611267565b610e42565b005b3480156102cd575f80fd5b506102d661104a565b6040516102e391906112a1565b60405180910390f35b3480156102f7575f80fd5b50610312600480360381019061030d9190611661565b611050565b005b61031c6110d4565b60045f9054906101000a900460ff161560045f6101000a81548160ff021916908315150217905550565b60025f8281526020019081526020015f206002015f9054906101000a900473ffffffffffffffffffffffffffffffffffffffff1673ffffffffffffffffffffffffffffffffffffffff163373ffffffffffffffffffffffffffffffffffffffff16146103e7576040517f08c379a00000000000000000000000000000000000000000000000000000000081526004016103de906116d6565b60405180910390fd5b600160025f8381526020019081526020015f206006015f6101000a81548160ff02191690831515021790555050565b5f60025f8381526020019081526020015f209050806006015f9054906101000a900460ff161561047b576040517f08c379a00000000000000000000000000000000000000000000000000000000081526004016104729061173e565b60405180910390fd5b5f8160050154116104c1576040517f08c379a00000000000000000000000000000000000000000000000000000000081526004016104b8906117a6565b60405180910390fd5b806002015f9054906101000a900473ffffffffffffffffffffffffffffffffffffffff1673ffffffffffffffffffffffffffffffffffffffff163373ffffffffffffffffffffffffffffffffffffffff1614610552576040517f08c379a000000000000000000000000000000000000000000000000000000000815260040161054990611834565b60405180910390fd5b5f60646005548360050154610567919061187f565b61057191906118ed565b90505f818360050154610584919061191d565b90505f83600501819055506001836006015f6101000a81548160ff0219169083151502179055505f836002015f9054906101000a900473ffffffffffffffffffffffffffffffffffffffff1673ffffffffffffffffffffffffffffffffffffffff16826040516105f39061197d565b5f6040518083038185875af1925050503d805f811461062d576040519150601f19603f3d011682016040523d82523d5f602084013e610632565b606091505b5050905080610676576040517f08c379a000000000000000000000000000000000000000000000000000000000815260040161066d906119db565b60405180910390fd5b7ff8f34cdee8cce732bed4c973cb836f740054133ea1b5e3bd9818d977f17e3a2f8533846040516106a9939291906119f9565b60405180910390a15050505050565b60035481565b60045f9054906101000a900460ff1661070c576040517f08c379a000000000000000000000000000000000000000000000000000000000815260040161070390611a78565b60405180910390fd5b60035f81548092919061071e90611a96565b91905055505f60025f60035481526020019081526020015f20905084815f0190816107499190611cd7565b508381600101908161075b9190611cd7565b5033816002015f6101000a81548173ffffffffffffffffffffffffffffffffffffffff021916908373ffffffffffffffffffffffffffffffffffffffff1602179055508281600301819055508181600401819055505f81600501819055505f816006015f6101000a81548160ff0219169083151502179055507f3be04e9f1f1f9fcb87f0dea5a703241b82ef94b701a7d7e64e7ed5a1fa74802160035433878760405161080b9493929190611da6565b60405180910390a15050505050565b6001602052815f5260405f20602052805f5260405f205f91509150505481565b6060805f805f805f8060025f8a81526020019081526020015f209050805f0181600101826002015f9054906101000a900473ffffffffffffffffffffffffffffffffffffffff16836003015484600401548560050154866006015f9054906101000a900460ff168680546108ad90611b0a565b80601f01602080910402602001604051908101604052809291908181526020018280546108d990611b0a565b80156109245780601f106108fb57610100808354040283529160200191610924565b820191905f5260205f20905b81548152906001019060200180831161090757829003601f168201915b5050505050965085805461093790611b0a565b80601f016020809104026020016040519081016040528092919081815260200182805461096390611b0a565b80156109ae5780601f10610985576101008083540402835291602001916109ae565b820191905f5260205f20905b81548152906001019060200180831161099157829003601f168201915b50505050509550975097509750975097509750975050919395979092949650565b6109d76110d4565b5f60025f8381526020019081526020015f209050806006015f9054906101000a900460ff16610a3b576040517f08c379a0000000000000000000000000000000000000000000000000000000008152600401610a3290611e67565b60405180910390fd5b5f60646005548360030154610a50919061187f565b610a5a91906118ed565b905080471015610a9f576040517f08c379a0000000000000000000000000000000000000000000000000000000008152600401610a9690611ecf565b60405180910390fd5b5f3373ffffffffffffffffffffffffffffffffffffffff1682604051610ac49061197d565b5f6040518083038185875af1925050503d805f8114610afe576040519150601f19603f3d011682016040523d82523d5f602084013e610b03565b606091505b5050905080610b47576040517f08c379a0000000000000000000000000000000000000000000000000000000008152600401610b3e90611f37565b60405180910390fd5b7ff8f34cdee8cce732bed4c973cb836f740054133ea1b5e3bd9818d977f17e3a2f843384604051610b7a939291906119f9565b60405180910390a150505050565b610b906110d4565b610b995f61115b565b565b5f60025f8481526020019081526020015f2090505f1515816006015f9054906101000a900460ff16151514610c05576040517f08c379a0000000000000000000000000000000000000000000000000000000008152600401610bfc9061173e565b60405180910390fd5b42816004015411610c4b576040517f08c379a0000000000000000000000000000000000000000000000000000000008152600401610c4290611f9f565b60405180910390fd5b5f816005015411610c91576040517f08c379a0000000000000000000000000000000000000000000000000000000008152600401610c88906117a6565b60405180910390fd5b5f60015f8581526020019081526020015f205f8473ffffffffffffffffffffffffffffffffffffffff1673ffffffffffffffffffffffffffffffffffffffff1681526020019081526020015f205411610d1f576040517f08c379a0000000000000000000000000000000000000000000000000000000008152600401610d169061202d565b60405180910390fd5b5f60015f8581526020019081526020015f205f8473ffffffffffffffffffffffffffffffffffffffff1673ffffffffffffffffffffffffffffffffffffffff1681526020019081526020015f205490505f60015f8681526020019081526020015f205f8573ffffffffffffffffffffffffffffffffffffffff1673ffffffffffffffffffffffffffffffffffffffff1681526020019081526020015f208190555080826005015f828254610dd3919061191d565b925050819055507f1852ceb13126c22f394b77ad6298d993dfb7813f9b3139349e3c3f0852c1fe74848483604051610e0d939291906119f9565b60405180910390a150505050565b5f805f9054906101000a900473ffffffffffffffffffffffffffffffffffffffff16905090565b5f60025f8381526020019081526020015f2090505f1515816006015f9054906101000a900460ff16151514610eac576040517f08c379a0000000000000000000000000000000000000000000000000000000008152600401610ea39061173e565b60405180910390fd5b42816004015411610ef2576040517f08c379a0000000000000000000000000000000000000000000000000000000008152600401610ee990611f9f565b60405180910390fd5b5f3411610f34576040517f08c379a0000000000000000000000000000000000000000000000000000000008152600401610f2b90612095565b60405180910390fd5b5f81600501548260030154610f49919061191d565b905080341115610f8e576040517f08c379a0000000000000000000000000000000000000000000000000000000008152600401610f8590612123565b60405180910390fd5b34826005015f828254610fa19190612141565b925050819055503460015f8581526020019081526020015f205f3373ffffffffffffffffffffffffffffffffffffffff1673ffffffffffffffffffffffffffffffffffffffff1681526020019081526020015f205f8282546110039190612141565b925050819055507f359f0e67d3d9fef460bb42e82dc5f5e7ff05c407413df528962a4080ec29efbc83333460405161103d939291906119f9565b60405180910390a1505050565b60055481565b6110586110d4565b5f73ffffffffffffffffffffffffffffffffffffffff168173ffffffffffffffffffffffffffffffffffffffff16036110c8575f6040517f1e4fbdf70000000000000000000000000000000000000000000000000000000081526004016110bf9190611648565b60405180910390fd5b6110d18161115b565b50565b6110dc61121c565b73ffffffffffffffffffffffffffffffffffffffff166110fa610e1b565b73ffffffffffffffffffffffffffffffffffffffff16146111595761111d61121c565b6040517f118cdaa70000000000000000000000000000000000000000000000000000000081526004016111509190611648565b60405180910390fd5b565b5f805f9054906101000a900473ffffffffffffffffffffffffffffffffffffffff169050815f806101000a81548173ffffffffffffffffffffffffffffffffffffffff021916908373ffffffffffffffffffffffffffffffffffffffff1602179055508173ffffffffffffffffffffffffffffffffffffffff168173ffffffffffffffffffffffffffffffffffffffff167f8be0079c531659141344cd1fd0a4f28419497f9722a3daafe3b4186f6b6457e060405160405180910390a35050565b5f33905090565b5f604051905090565b5f80fd5b5f80fd5b5f819050919050565b61124681611234565b8114611250575f80fd5b50565b5f813590506112618161123d565b92915050565b5f6020828403121561127c5761127b61122c565b5b5f61128984828501611253565b91505092915050565b61129b81611234565b82525050565b5f6020820190506112b45f830184611292565b92915050565b5f80fd5b5f80fd5b5f601f19601f8301169050919050565b7f4e487b71000000000000000000000000000000000000000000000000000000005f52604160045260245ffd5b611308826112c2565b810181811067ffffffffffffffff82111715611327576113266112d2565b5b80604052505050565b5f611339611223565b905061134582826112ff565b919050565b5f67ffffffffffffffff821115611364576113636112d2565b5b61136d826112c2565b9050602081019050919050565b828183375f83830152505050565b5f61139a6113958461134a565b611330565b9050828152602081018484840111156113b6576113b56112be565b5b6113c184828561137a565b509392505050565b5f82601f8301126113dd576113dc6112ba565b5b81356113ed848260208601611388565b91505092915050565b5f805f806080858703121561140e5761140d61122c565b5b5f85013567ffffffffffffffff81111561142b5761142a611230565b5b611437878288016113c9565b945050602085013567ffffffffffffffff81111561145857611457611230565b5b611464878288016113c9565b935050604061147587828801611253565b925050606061148687828801611253565b91505092959194509250565b5f73ffffffffffffffffffffffffffffffffffffffff82169050919050565b5f6114bb82611492565b9050919050565b6114cb816114b1565b81146114d5575f80fd5b50565b5f813590506114e6816114c2565b92915050565b5f80604083850312156115025761150161122c565b5b5f61150f85828601611253565b9250506020611520858286016114d8565b9150509250929050565b5f81519050919050565b5f82825260208201905092915050565b5f5b83811015611561578082015181840152602081019050611546565b5f8484015250505050565b5f6115768261152a565b6115808185611534565b9350611590818560208601611544565b611599816112c2565b840191505092915050565b6115ad816114b1565b82525050565b5f8115159050919050565b6115c7816115b3565b82525050565b5f60e0820190508181035f8301526115e5818a61156c565b905081810360208301526115f9818961156c565b905061160860408301886115a4565b6116156060830187611292565b6116226080830186611292565b61162f60a0830185611292565b61163c60c08301846115be565b98975050505050505050565b5f60208201905061165b5f8301846115a4565b92915050565b5f602082840312156116765761167561122c565b5b5f611683848285016114d8565b91505092915050565b7f4f6e6c79206f776e65722063616e20636f6d706c6574650000000000000000005f82015250565b5f6116c0601783611534565b91506116cb8261168c565b602082019050919050565b5f6020820190508181035f8301526116ed816116b4565b9050919050565b7f4964656120697320616c726561647920636f6d706c65746564000000000000005f82015250565b5f611728601983611534565b9150611733826116f4565b602082019050919050565b5f6020820190508181035f8301526117558161171c565b9050919050565b7f4964656120686173206e6f74206265656e2066756e64656420796574000000005f82015250565b5f611790601c83611534565b915061179b8261175c565b602082019050919050565b5f6020820190508181035f8301526117bd81611784565b9050919050565b7f4f6e6c7920746865206f776e65722063616e2077697468647261772066756e645f8201527f7300000000000000000000000000000000000000000000000000000000000000602082015250565b5f61181e602183611534565b9150611829826117c4565b604082019050919050565b5f6020820190508181035f83015261184b81611812565b9050919050565b7f4e487b71000000000000000000000000000000000000000000000000000000005f52601160045260245ffd5b5f61188982611234565b915061189483611234565b92508282026118a281611234565b915082820484148315176118b9576118b8611852565b5b5092915050565b7f4e487b71000000000000000000000000000000000000000000000000000000005f52601260045260245ffd5b5f6118f782611234565b915061190283611234565b925082611912576119116118c0565b5b828204905092915050565b5f61192782611234565b915061193283611234565b925082820390508181111561194a57611949611852565b5b92915050565b5f81905092915050565b50565b5f6119685f83611950565b91506119738261195a565b5f82019050919050565b5f6119878261195d565b9150819050919050565b7f4661696c656420746f2073656e642066756e64730000000000000000000000005f82015250565b5f6119c5601483611534565b91506119d082611991565b602082019050919050565b5f6020820190508181035f8301526119f2816119b9565b9050919050565b5f606082019050611a0c5f830186611292565b611a1960208301856115a4565b611a266040830184611292565b949350505050565b7f43726f776466756e64696e6720697320706175736564000000000000000000005f82015250565b5f611a62601683611534565b9150611a6d82611a2e565b602082019050919050565b5f6020820190508181035f830152611a8f81611a56565b9050919050565b5f611aa082611234565b91507fffffffffffffffffffffffffffffffffffffffffffffffffffffffffffffffff8203611ad257611ad1611852565b5b600182019050919050565b7f4e487b71000000000000000000000000000000000000000000000000000000005f52602260045260245ffd5b5f6002820490506001821680611b2157607f821691505b602082108103611b3457611b33611add565b5b50919050565b5f819050815f5260205f209050919050565b5f6020601f8301049050919050565b5f82821b905092915050565b5f60088302611b967fffffffffffffffffffffffffffffffffffffffffffffffffffffffffffffffff82611b5b565b611ba08683611b5b565b95508019841693508086168417925050509392505050565b5f819050919050565b5f611bdb611bd6611bd184611234565b611bb8565b611234565b9050919050565b5f819050919050565b611bf483611bc1565b611c08611c0082611be2565b848454611b67565b825550505050565b5f90565b611c1c611c10565b611c27818484611beb565b505050565b5b81811015611c4a57611c3f5f82611c14565b600181019050611c2d565b5050565b601f821115611c8f57611c6081611b3a565b611c6984611b4c565b81016020851015611c78578190505b611c8c611c8485611b4c565b830182611c2c565b50505b505050565b5f82821c905092915050565b5f611caf5f1984600802611c94565b1980831691505092915050565b5f611cc78383611ca0565b9150826002028217905092915050565b611ce08261152a565b67ffffffffffffffff811115611cf957611cf86112d2565b5b611d038254611b0a565b611d0e828285611c4e565b5f60209050601f831160018114611d3f575f8415611d2d578287015190505b611d378582611cbc565b865550611d9e565b601f198416611d4d86611b3a565b5f5b82811015611d7457848901518255600182019150602085019450602081019050611d4f565b86831015611d915784890151611d8d601f891682611ca0565b8355505b6001600288020188555050505b505050505050565b5f608082019050611db95f830187611292565b611dc660208301866115a4565b8181036040830152611dd8818561156c565b90508181036060830152611dec818461156c565b905095945050505050565b7f49646561206d75737420626520636f6d706c6574656420746f207769746864725f8201527f6177206665657300000000000000000000000000000000000000000000000000602082015250565b5f611e51602783611534565b9150611e5c82611df7565b604082019050919050565b5f6020820190508181035f830152611e7e81611e45565b9050919050565b7f4665657320617265206e6f7420656e6f75676820746f207769746864726177005f82015250565b5f611eb9601f83611534565b9150611ec482611e85565b602082019050919050565b5f6020820190508181035f830152611ee681611ead565b9050919050565b7f4661696c656420746f2073656e642066656573000000000000000000000000005f82015250565b5f611f21601383611534565b9150611f2c82611eed565b602082019050919050565b5f6020820190508181035f830152611f4e81611f15565b9050919050565b7f4964656120646561646c696e65206861732070617373656400000000000000005f82015250565b5f611f89601883611534565b9150611f9482611f55565b602082019050919050565b5f6020820190508181035f830152611fb681611f7d565b9050919050565b7f4261636b657220686173206e6f7420636f6e747269627574656420746f2074685f8201527f6520696465610000000000000000000000000000000000000000000000000000602082015250565b5f612017602683611534565b915061202282611fbd565b604082019050919050565b5f6020820190508181035f8301526120448161200b565b9050919050565b7f416d6f756e74206d7573742062652067726561746572207468616e20300000005f82015250565b5f61207f601d83611534565b915061208a8261204b565b602082019050919050565b5f6020820190508181035f8301526120ac81612073565b9050919050565b7f416d6f756e7420657863656564732072656d61696e696e672066756e64696e675f8201527f20676f616c000000000000000000000000000000000000000000000000000000602082015250565b5f61210d602583611534565b9150612118826120b3565b604082019050919050565b5f6020820190508181035f83015261213a81612101565b9050919050565b5f61214b82611234565b915061215683611234565b925082820190508082111561216e5761216d611852565b5b9291505056fea2646970667358221220e6321b192821ae75b04a66481d5fc8a2d589f5e557b3a1088086e10db5dd8cde64736f6c63430008140033","linkReferences":{}},"methodIdentifiers":{"FeePercentage()":"e28797d2","completeIdea(uint256)":"2a8d37b1","contributions(uint256,address)":"3d891f59","createIdea(string,string,uint256,uint256)":"38f35913","fundIdea(uint256)":"ccdd0035","getIdea(uint256)":"44de6b2f","owner()":"8da5cb5b","refund(uint256,address)":"7ad226dc","renounceOwnership()":"715018a6","toggleActive()":"29c68dc1","totalIdeas()":"38a93ba0","transferOwnership(address)":"f2fde38b","withdraw(uint256)":"2e1a7d4d","withdrawFees(uint256)":"5e318e07"},"id":2}